:020000040800F2
:10000000C0C301208902000825C70008334E00083C
:1000100023C7000815370008B5DB00080000000002
:10002000000000000000000000000000C5D600082D
:1000300017370008000000001DC900085DD7000840
:10004000A3020008A3020008A3020008A3020008FC
:10005000A3020008A3020008A3020008A3020008EC
:10006000A3020008A3020008A3020008A3020008DC
:10007000A3020008A3020008A3020008A3020008CC
:10008000A3020008A3020008A3020008A3020008BC
:10009000A3020008A3020008A3020008A3020008AC
:1000A000A3020008A3020008A3020008A30200089C
:1000B000A3020008A3020008A3020008A30200088C
:1000C000A3020008A3020008A3020008A30200087C
:1000D000A302000889DB0008A3020008A3020008AD
:1000E000A3020008A3020008A3020008A30200085C
:1000F000A3020008A3020008A3020008A30200084C
:10010000A3020008A3020008A3020008A30200083B
:10011000A3020008A3020008A3020008A30200082B
:10012000A3020008A3020008A3020008A30200081B
:10013000A3020008A3020008A3020008A30200080B
:10014000A3020008A3020008A3020008A3020008FB
:10015000A3020008A3020008A3020008A3020008EB
:10016000A3020008A3020008A3020008A3020008DB
:10017000A3020008A3020008A30200080000000078
:10018000A3020008A302000800F002F800F064F8DF
:100190000AA090E8000C82448344AAF10107DA45E2
:1001A00001D100F059F8AFF2090EBAE80F0013F0D0
:1001B000010F18BFFB1A43F001031847441E040047
:1001C000641E04000A444FF0000C10F8013B13F0C9
:1001D000070408BF10F8014B1D1108BF10F8015BA0
:1001E000641E05D010F8016B641E01F8016BF9D193
:1001F00013F0080F1EBF10F8014BAD1C0C1B09D1EA
:100200006D1E58BF01F801CBFAD505E014F8016B5B
:1002100001F8016B6D1EF9D59142D6D370470000ED
:100220000023002400250026103A28BF78C1FBD8FF
:10023000520728BF30C148BF0B607047642900F0E7
:10024000FB80782900F03481002070471FB512F040
:1002500021FC1FBD10B510BD00F076FA1146FFF766
:10026000F5FF10F029F800F094FA03B4FFF7F2FF5D
:1002700003BC0DF061FE000030BF72B6704762B67D
:10028000704780F30888704709488047094800474D
:10029000FEE7FEE7FEE7FEE7FEE7FEE7FEE7FEE736
:1002A000FEE7FEE704480549054A064B7047000093
:1002B00061D7000889010008C0BD0120C0C301202A
:1002C000C0BF0120C0BF0120704753EA020C00F0FC
:1002D00069802DE9F04B4FF00006002B1FBFB3FAE9
:1002E00083F503FA05F424FA05F65E4012BF1643BF
:1002F000B2FA82F502FA05F4C5F120051EBF22FA12
:1003000005FC44EA0C04203556EA044C4FEA144438
:1003100018BF641C4FF000084FF00009904271EBC9
:10032000030C39D3002919BFB1FA81F701FA07F696
:10033000B0FA80F700FA07F6C7F120071EBF20FACF
:1003400007FC46EA0C062037B6FBF4FCA7EB0507D2
:10035000103F07F01F0BCBF120060CFA0BFB2CFA19
:1003600006F644BFB3460026202FA4BF5E464FF0DA
:10037000000B5BEA060C08BF4FF0010B19EB0B09F1
:10038000ABFB027C48EB0608C01B06FB02CC0BFB58
:1003900003CC71EB0C01C1E70B46024641464846CF
:1003A000BDE8F08B13B54FF000004FF00001AFF344
:1003B0000080BDE81C4070470FB4044910B503AA83
:1003C000029800F093F910BC5DF814FB18000020AF
:1003D0002DE9F0410E460446002020622046E168E7
:1003E000884730B3252805D0D4E901219047206AF9
:1003F000401CF2E7E168204600278847050018D036
:10040000A5F14100192802D820354FF40067324683
:10041000294620462760FFF711FF40B1012804D08C
:10042000F61D26F007060836D8E7361DD6E728461B
:10043000DAE7206ABDE8F0812DE9F04106460024A4
:1004400010687529314616A510D0AFF3008000283A
:1004500002DA404213A507E031688A0701D512A5E8
:1004600002E0490704D511A5012401E0AFF30080A3
:1004700000210A2206F1240709E0B0FBF2FCB0FBE0
:10048000F2F302FB1C00303078541846491C002857
:10049000F3D123462A463046BDE8F04100F0CCB8FF
:1004A000000000002D0000002B00000020000000D4
:1004B00070B504460D4621461068AFF300802188D0
:1004C000090502D50F4A7A4402E00E4A7A440E32F8
:1004D000002104F1240305E000F00F060009965DF9
:1004E0005E54491C0028F7D120780023000704D56A
:1004F000702D02D009B1022311322046BDE87040B0
:1005000000F09AB80E1B040040EA010370B59B0787
:100510002ED14FF00136042A2AD308C810C99D1BDA
:100520009D43121F15EAC61517D0D8B2E1B2401A82
:1005300050EA056110D198B2A1B2401A50EA0541C3
:100540000AD123F07F4024F07F41401A50EA052170
:1005500002D1180EA0EB146070BDA342DBD018BA14
:1005600021BA884201D9012070BD4FF0FF3070BD23
:100570000AB9002070BD10F8013B11F8014B63B1BE
:10058000A3420AD1521E08D010F8013B11F8014BCA
:100590001BB1A34201D1521EEDD1181B70BD4FF00B
:1005A00000020429C0F0128010F0030C00F01B8040
:1005B000CCF1040CBCF1020F18BF00F8012BA8BF4E
:1005C00020F8022BA1EB0C0100F00DB85FEAC17C12
:1005D00024BF00F8012B00F8012B48BF00F8012BC5
:1005E00070474FF0000200B51346944696462039F6
:1005F00022BFA0E80C50A0E80C50B1F12001BFF4DC
:10060000F7AF090728BFA0E80C5048BF0CC05DF841
:1006100004EB890028BF40F8042B08BF704748BF8F
:1006200020F8022B11F0804F18BF00F8012B704703
:1006300070477047704770472DE9F0470D4699465F
:100640009246044600F124080168880604D5E06952
:1006500021F01001216000E00120A84201DD471BCC
:1006600000E00027A1697A1902EB0900081AA061CD
:100670002078C00602D42046AFF30080002608E0B0
:10068000D4E901211AF806009047206A401C761C24
:1006900020624E45F4DB2078C0060AD52046AFF331
:1006A000008006E0D4E9012130209047206A401CF8
:1006B0002062381EA7F10107F4DC07E0D4E901212C
:1006C00018F805009047206A401C2062281EA5F1FA
:1006D0000105F3DC2046AFF300802078000602D548
:1006E0000220BDE8F0870120FBE70000074B70B552
:1006F0000D467B4400F011F80446284600F020F82F
:1007000010B14FF0FF3070BD204670BDAFF6000055
:1007100001694A1C02610878704700B58FB0CDE9C5
:1007200001310021059105497944CDE903101146B5
:100730006846FFF74DFE0FB000BD0000E5FFFFFF6C
:10074000007B00F080007047754600F02BF8AE4645
:1007500005006946534620F00700854618B020B5CD
:10076000FFF7A0FDBDE820404FF000064FF0000766
:100770004FF000084FF0000B21F00701AC46ACE849
:10078000C009ACE8C009ACE8C009ACE8C0098D46B6
:10079000704710B50446AFF300802046BDE8104016
:1007A000FFF763BD0048704760BD012008B5614692
:1007B0000BF0D8FFBDE808404EF0010E704708B5B9
:1007C00060460BF0B9FFBDE808404EF0010E7047DF
:1007D00000BF0000DAF88400A9EB000101F101007C
:1007E0004FEA1021DAF8802002F8011942F48072F1
:1007F00002F801098AF8802008F04D0013F0004F3C
:1008000018BF40F0800013F0FF0F08BF40F0020057
:1008100040F030004FF6FE7C02F0DEFEDAF8A00079
:1008200000F10700CAF8A000DAF80010B8F5E06897
:100830005CBF19F8010B51F820F0DAF888F019F8CC
:10084000010B06EB00604FEA106C1BF80CC000F1C6
:1008500080704FEA10611BF801104CEA012C0CF477
:1008600060410FF20A0E4FEAD12154F801F045EA37
:1008700000654FEA2563DAF8A00000F10600CAF827
:10088000A000DAF80010B8F5C0685CBF19F8010BD9
:1008900051F820F0DAF888F019F801CB1BF80C00B9
:1008A00045EA00654FEA2563DAF8A00000F103008D
:1008B000CAF8A000DAF80010B8F540785CBF19F863
:1008C000010B51F820F0DAF888F019F801CB1BF889
:1008D0000C00004450EA006348F001080BF80C00DB
:1008E000DAF8A00000F10500CAF8A000DAF800105C
:1008F00078F5A0685CBF19F8010B51F820F0DAF820
:1009000088F008F04D0013F0004F18BF40F0800051
:1009100013F0FF0F08BF40F0020040F03000DAF89B
:10092000802002F801098AF88020DAF8A00000F19E
:100930000300CAF8A000DAF80010B8F540785CBFF0
:1009400019F8010B51F820F0DAF888F019F8010BCA
:1009500045EA00654FEA2563DAF8A00000F10200DD
:10096000CAF8A000DAF80010B8F500785CBF19F8F2
:10097000010B51F820F0DAF888F06D194FEA256381
:1009800048F00108DAF8A00000F10200CAF8A0005F
:10099000DAF8001078F500785CBF19F8010B51F80F
:1009A00020F0DAF888F019F801CB19F8010B4CEABD
:1009B000002C0CF460410FF20A0E4FEAD12154F8DA
:1009C00001F045EA00654FEA2563DAF8A00000F17E
:1009D0000400CAF8A000DAF80010B8F580685CBF1F
:1009E00019F8010B51F820F0DAF888F019F801CB6A
:1009F00019F8010B4CEA002C0CF460410FF2080EC0
:100A00004FEAD12154F801F0004450EA006348F065
:100A100001080CF460410AF124020FF20A0E4FEAB9
:100A2000D12152F801F0DAF8A00000F10600CAF86E
:100A3000A000DAF8001078F5C0685CBF19F8010B67
:100A400051F820F0DAF888F013F0004F19F9010B93
:100A500004BF8144A8F58078DAF8A00000F1020014
:100A6000CAF8A000DAF80010B8F500785CBF19F8F1
:100A7000010B51F820F0DAF888F019F8010B10F8A2
:100A80000BC0584441784CEA012C0CEB176C0CF469
:100A900060410FF20A0E4FEAD12154F801F045EA05
:100AA00000654FEA2563DAF8A00000F10500CAF8F6
:100AB000A000DAF80010B8F5A0685CBF19F8010BC7
:100AC00051F820F0DAF888F019F801CB06EB0C6C3D
:100AD0004FEA1C601BF8000045EA00654FEA2563F9
:100AE000DAF8A00000F10400CAF8A000DAF800105B
:100AF000B8F580685CBF19F8010B51F820F0DAF8FE
:100B000088F019F801CB06EB0C6C4FEA1C601BF85F
:100B10000000004450EA006348F001084FEA1C61FD
:100B20000BF80100DAF8A00000F10600CAF8A000F6
:100B3000DAF8001078F5C0685CBF19F8010B51F8BD
:100B400020F0DAF888F028F00108DAF8A00000F1C7
:100B50000200CAF8A000DAF80010B8F500785CBF0F
:100B600019F8010B51F820F0DAF888F019F801CBE8
:100B700019F8010B4CEA002C0CEB176C0CF46041DB
:100B80000FF2080E4FEAD12154F801F045EA006552
:100B90004FEA2563DAF8A00000F10400CAF8A000CB
:100BA000DAF80010B8F580685CBF19F8010B51F84D
:100BB00020F0DAF888F019F801CB19F8010B4CEAAB
:100BC000002C0CEB166C0CF460410FF20A0E4FEA8D
:100BD000D12154F801F045EA00654FEA2563DAF8BF
:100BE000A00000F10400CAF8A000DAF80010B8F57F
:100BF00080685CBF19F8010B51F820F0DAF888F032
:100C000019F801CB19F8010B4CEA002C0CEB166C0F
:100C10000CF460410FF2080E4FEAD12154F801F0B4
:100C2000004450EA006348F001080CF460410AF106
:100C300024020FF20A0E4FEAD12152F801F0DAF83D
:100C4000A00000F10700CAF8A000DAF8001078F55B
:100C5000E0685CBF19F8010B51F820F0DAF888F071
:100C600019F8012BDAF88410A9EB010099F80010AB
:100C700042EA01294FEA1021DAF8802002F801192E
:100C800042F4807202F801098AF8802009F4604178
:100C90000AF144024FEAD1201058CAF88400814476
:100CA000DAF8A00000F10600CAF8A000DAF8001097
:100CB000B8F5C0685CBF19F8010B51F820F0DAF8FC
:100CC00088F019F8010B06EB00604FEA106C1BF876
:100CD0000CC000F180704FEA10611BF801104CEA63
:100CE000012C0CF460410FF20A0E4FEAD12154F8A6
:100CF00001F005EA00654FEA2563DAF8A00000F18B
:100D00000600CAF8A000DAF80010B8F5C0685CBFA9
:100D100019F8010B51F820F0DAF888F019F801CB36
:100D20001BF80C0028F0400810F0400F18BF48F0E6
:100D3000400800EA156343EA0063DAF8A00000F116
:100D40000300CAF8A000DAF80010B8F540785CBFDC
:100D500019F8010B51F820F0DAF888F019F801CBF6
:100D60001BF80C0005EA00654FEA2563DAF8A000DD
:100D700000F10300CAF8A000DAF80010B8F54078D6
:100D80005CBF19F8010B51F820F0DAF888F019F877
:100D900001CB1BF80C005FEA580840EB000050EA5A
:100DA000006348EB08080BF80C00DAF8A00000F12B
:100DB0000500CAF8A000DAF80010B8F5A0685CBF1A
:100DC00019F8010B51F820F0DAF888F09AF8802031
:100DD00002F101028AF8802042F480721BF90200BD
:100DE00028F04D0800F04D0148EA010820F0FD030D
:100DF00083F00203DAF8A00000F10400CAF8A000B2
:100E0000DAF80010B8F580685CBF19F8010B51F8EA
:100E100020F0DAF888F019F8010B05EA00654FEACE
:100E20002563DAF8A00000F10200CAF8A000DAF8A1
:100E30000010B8F500785CBF19F8010B51F820F0EC
:100E4000DAF888F05FEA580828BF45F400056D1904
:100E50004FEA256348EB0808DAF8A00000F1020029
:100E6000CAF8A000DAF80010B8F500785CBF19F8ED
:100E7000010B51F820F0DAF888F019F801CB19F8D5
:100E8000010B4CEA002C0CF460410FF20A0E4FEA01
:100E9000D12154F801F028F0400810F0400F18BF9D
:100EA00048F0400800EA156343EA0063DAF8A0005E
:100EB00000F10400CAF8A000DAF80010B8F5806864
:100EC0005CBF19F8010B51F820F0DAF888F019F836
:100ED00001CB19F8010B4CEA002C0CF460410FF225
:100EE0000A0E4FEAD12154F801F005EA00654FEAF5
:100EF0002563DAF8A00000F10400CAF8A000DAF8CF
:100F00000010B8F580685CBF19F8010B51F820F0AB
:100F1000DAF888F019F801CB19F8010B4CEA002C2B
:100F20000CF460410FF2080E4FEAD12154F801F0A1
:100F30005FEA580840EB000050EA006348EB0808FD
:100F40000CF460410AF124020FF2080E4FEAD1219D
:100F500052F801F0DAF8A00000F10600CAF8A0008B
:100F6000DAF80010B8F5C0685CBF19F8010B51F849
:100F700020F0DAF888F013F0004F19F9010B1CBFCC
:100F80008144A8F58078DAF8A00000F10200CAF8E0
:100F9000A000DAF80010B8F500785CBF19F8010B72
:100FA00051F820F0DAF888F019F8010B10F80BC0AE
:100FB000584441784CEA012C0CEB176C0CF460415E
:100FC0000FF2080E4FEAD12154F801F005EA00654E
:100FD0004FEA2563DAF8A00000F10500CAF8A00086
:100FE000DAF80010B8F5A0685CBF19F8010B51F8E9
:100FF00020F0DAF888F019F801CB06EB0C6C4FEA18
:101000001C601BF8000005EA00654FEA2563DAF86A
:10101000A00000F10400CAF8A000DAF80010B8F54A
:1010200080685CBF19F8010B51F820F0DAF888F0FD
:1010300019F801CB06EB0C6C4FEA1C601BF80000A2
:101040005FEA580840EB000050EA006348EB0808EC
:101050004FEA1C610BF80100DAF8A00000F106006D
:10106000CAF8A000DAF80010B8F5C0685CBF19F83B
:10107000010B51F820F0DAF888F048F00108DAF8AE
:10108000A00000F10200CAF8A000DAF80010B8F5DC
:1010900000785CBF19F8010B51F820F0DAF888F0FD
:1010A00019F801CB19F8010B4CEA002C0CEB176C6A
:1010B0000CF460410FF2080E4FEAD12154F801F010
:1010C00005EA00654FEA2563DAF8A00000F10400A4
:1010D000CAF8A000DAF80010B8F580685CBF19F80B
:1010E000010B51F820F0DAF888F019F801CB19F863
:1010F000010B4CEA002C0CEB166C0CF460410FF267
:101100000A0E4FEAD12154F801F005EA00654FEAD2
:101110002563DAF8A00000F10400CAF8A000DAF8AC
:101120000010B8F580685CBF19F8010B51F820F089
:10113000DAF888F019F801CB19F8010B4CEA002C09
:101140000CEB166C0CF460410FF2080E4FEAD12143
:1011500054F801F05FEA580840EB000050EA0063E1
:1011600048EB08080CF460410AF124020FF2080E63
:101170004FEAD12152F801F0DAF8A00000F107009F
:10118000CAF8A000DAF80010B8F5E0685CBF19F8FA
:10119000010B51F820F0DAF888F09AF8802002F17B
:1011A00001028AF8802042F480721BF9020028F0C4
:1011B0004D0800F04D0148EA010820F0FD0383F0DE
:1011C00002039AF8802002F102028AF88020DAF8FD
:1011D000802012F8010942F4807292F8009049EAE6
:1011E000002909F460410AF144024FEAD120105865
:1011F000CAF884008144DAF8A00000F10600CAF8B9
:10120000A000DAF80010B8F5C0685CBF19F8010B4F
:1012100051F820F0DAF888F019F8010B06EB0060BD
:101220004FEA106C1BF80CC000F180704FEA10619F
:101230001BF801104CEA012C0CF460410FF2080E6F
:101240004FEAD12154F801F085EA00654FEA2563A1
:10125000DAF8A00000F10600CAF8A000DAF80010E1
:10126000B8F5C0685CBF19F8010B51F820F0DAF846
:1012700088F019F801CB1BF80C0085EA00654FEAED
:101280002563DAF8A00000F10300CAF8A000DAF83C
:101290000010B8F540785CBF19F8010B51F820F048
:1012A000DAF888F019F801CB1BF80C305B0848F02D
:1012B00001080BF80C30DAF8A00000F10500CAF8BC
:1012C000A000DAF8001078F5A0685CBF19F8010BEF
:1012D00051F820F0DAF888F04FEA1560DAF880204B
:1012E00002F801098AF88020DAF8A00000F1030072
:1012F000CAF8A000DAF80010B8F540785CBF19F819
:10130000010B51F820F0DAF888F019F8010B85EAA2
:1013100000654FEA2563DAF8A00000F10200CAF880
:10132000A000DAF80010B8F500785CBF19F8010BDE
:1013300051F820F0DAF888F06B0E4FEA036548F0B8
:101340000108DAF8A00000F10200CAF8A000DAF8FB
:10135000001078F500785CBF19F8010B51F820F007
:10136000DAF888F019F8010B99F8001040EA012921
:1013700009F460410AF144024FEAD1201058CAF83A
:1013800084008144DAF8A00000F10300CAF8A0004C
:10139000DAF80010B8F540785CBF19F8010B51F885
:1013A00020F0DAF888F019F801CB19F8010B4CEAB3
:1013B000002C0CF460410FF20A0E4FEAD12154F8D0
:1013C00001F085EA00654FEA2563DAF8A00000F134
:1013D0000400CAF8A000DAF80010B8F580685CBF15
:1013E00019F8010B51F820F0DAF888F019F801CB60
:1013F00019F8010B4CEA002C0CF460410FF2080EB6
:101400004FEAD12154F801F0400848F001080346A2
:101410000CF460410AF124020FF2080E4FEAD121C8
:1014200052F801F0DAF8A00000F10600CAF8A000B6
:10143000DAF8001078F5C0685CBF19F8010B51F8B4
:1014400020F0DAF888F018F0400F19F9010B04BF0A
:101450008144A8F58078DAF8A00000F10200CAF80B
:10146000A000DAF80010B8F500785CBF19F8010B9D
:1014700051F820F0DAF888F019F8010B10F80BC0D9
:10148000584441784CEA012C0CEB176C0CF4604189
:101490000FF2080E4FEAD12154F801F085EA0065F9
:1014A0004FEA2563DAF8A00000F10500CAF8A000B1
:1014B000DAF80010B8F5A0685CBF19F8010B51F814
:1014C00020F0DAF888F019F801CB06EB0C6C4FEA43
:1014D0001C601BF8000085EA00654FEA2563DAF816
:1014E000A00000F10400CAF8A000DAF80010B8F576
:1014F00080685CBF19F8010B51F820F0DAF888F029
:1015000019F801CB06EB0C6C4FEA1C631BF8033097
:101510005B0848F001084FEA1C610BF80130DAF86B
:10152000A00000F10600CAF8A000DAF8001078F573
:10153000C0685CBF19F8010B51F820F0DAF888F0A8
:1015400028F00408DAF8A00000F10200CAF8A000B0
:10155000DAF80010B8F500785CBF19F8010B51F803
:1015600020F0DAF888F019F801CB19F8010B4CEAF1
:10157000002C0CEB176C0CF460410FF20A0E4FEAD2
:10158000D12154F801F085EA00654FEA2563DAF8C5
:10159000A00000F10400CAF8A000DAF80010B8F5C5
:1015A00080685CBF19F8010B51F820F0DAF888F078
:1015B00019F801CB19F8010B4CEA002C0CEB166C56
:1015C0000CF460410FF2080E4FEAD12154F801F0FB
:1015D00085EA00654FEA2563DAF8A00000F104000F
:1015E000CAF8A000DAF80010B8F580685CBF19F8F6
:1015F000010B51F820F0DAF888F019F801CB19F84E
:10160000010B4CEA002C0CEB166C0CF460410FF251
:101610000A0E4FEAD12154F801F0400848F00108C1
:1016200003460CF460410AF124020FF20A0E4FEA5D
:10163000D12152F801F0DAF8A00000F10700CAF851
:10164000A000DAF8001078F5E0685CBF19F8010B2B
:1016500051F820F0DAF888F09AF8802002F10202BE
:101660008AF88020DAF8802012F8010942F48072AA
:1016700092F8009049EA002909F1010909F4604152
:101680000AF144024FEAD1201058CAF8840081447C
:10169000DAF8A00000F10600CAF8A000DAF800109D
:1016A000B8F5C0685CBF19F8010B51F820F0DAF802
:1016B00088F019F8010B06EB00604FEA106C1BF87C
:1016C0000CC000F180704FEA10611BF801104CEA69
:1016D000012C0CF460410FF20A0E4FEAD12154F8AC
:1016E00001F05FEA580128BFA0F5807055EB302566
:1016F0004FEA256348F0410878BF28F04008DAF83F
:10170000A00000F10600CAF8A000DAF8001078F591
:10171000C0685CBF19F8010B51F820F0DAF888F0C6
:1017200019F801CB1BF80C005FEA580128BFA0F59F
:10173000807055EB30254FEA256348F0410878BFAB
:1017400028F04008DAF8A00000F10300CAF8A00071
:10175000DAF8001078F540785CBF19F8010B51F801
:1017600020F0DAF888F019F801CB1BF80C005FEADA
:10177000580828BF40F48070400840EA006348EBF6
:1017800008080BF80C00DAF8A00000F10500CAF810
:10179000A000DAF80010B8F5A0685CBF19F8010BDA
:1017A00051F820F0DAF888F09AF8802002F101026E
:1017B0008AF8802042F480721BF902304FEA0365F8
:1017C000DAF8A00000F10400CAF8A000DAF800106E
:1017D000B8F580685CBF19F8010B51F820F0DAF811
:1017E00088F019F8010B5FEA580128BFA0F5807056
:1017F00055EB30254FEA256348F0410878BF28F0C3
:101800004008DAF8A00000F10200CAF8A000DAF8F7
:10181000001078F500785CBF19F8010B51F820F042
:10182000DAF888F05FEA58084FEA35052B1605F01C
:101830007F4548EB0808DAF8A00000F10200CAF87A
:10184000A000DAF80010B8F500785CBF19F8010BB9
:1018500051F820F0DAF888F019F801CB19F8010BEB
:101860004CEA002C0AF144010CF460424FEAD22009
:10187000095811F80C906144487849EA002909F4A4
:1018800060410AF144024FEAD1201058CAF884009E
:101890008144DAF8A00000F10500CAF8A000DAF8E7
:1018A0000010B8F5A0685CBF19F8010B51F820F0E2
:1018B000DAF888F019F801CB19F8010B4CEA002C82
:1018C0000CF460410FF2080E4FEAD12154F801F0F8
:1018D0005FEA580128BFA0F5807055EB30254FEA2C
:1018E000256348F0410878BF28F04008DAF8A000E6
:1018F00000F10400CAF8A000DAF8001078F580685A
:101900005CBF19F8010B51F820F0DAF888F019F8EB
:1019100001CB19F8010B4CEA002C0CF460410FF2DA
:101920000A0E4FEAD12154F801F05FEA580828BFA7
:1019300040F48070400840EA006348EB08080CF46B
:1019400060410AF124020FF20A0E4FEAD12152F847
:1019500001F0DAF8A00000F10600CAF8A000DAF8F9
:101960000010B8F5C0685CBF19F8010B51F820F001
:10197000DAF888F018F0400F19F9010B1CBF814408
:10198000A8F58078DAF8A00000F10200CAF8A000FB
:10199000DAF80010B8F500785CBF19F8010B51F8BF
:1019A00020F0DAF888F019F8010B10F80BC0584451
:1019B00041784CEA012C0CEB176C0CF460410FF2EF
:1019C0000A0E4FEAD12154F801F05FEA580128BF0E
:1019D000A0F5807055EB30254FEA256348F04108AB
:1019E00078BF28F04008DAF8A00000F10500CAF836
:1019F000A000DAF8001078F5A0685CBF19F8010BB8
:101A000051F820F0DAF888F019F801CB06EB0C6CED
:101A10004FEA1C601BF800005FEA580128BFA0F5E0
:101A2000807055EB30254FEA256348F0410878BFB8
:101A300028F04008DAF8A00000F10400CAF8A0007D
:101A4000DAF8001078F580685CBF19F8010B51F8DE
:101A500020F0DAF888F019F801CB06EB0C6C4FEAAD
:101A60001C601BF800005FEA580828BF40F4807033
:101A7000400840EA006348EB08084FEA1C610BF895
:101A80000100DAF8A00000F10600CAF8A000DAF8B8
:101A90000010B8F5C0685CBF19F8010B51F820F0D0
:101AA000DAF888F048F00408DAF8A00000F1020043
:101AB000CAF8A000DAF80010B8F500785CBF19F891
:101AC000010B51F820F0DAF888F019F801CB19F879
:101AD000010B4CEA002C0CEB176C0CF460410FF27C
:101AE0000A0E4FEAD12154F801F05FEA580128BFED
:101AF000A0F5807055EB30254FEA256348F041088A
:101B000078BF28F04008DAF8A00000F10400CAF815
:101B1000A000DAF8001078F580685CBF19F8010BB6
:101B200051F820F0DAF888F019F801CB19F8010B18
:101B30004CEA002C0CEB166C0CF460410FF2080E12
:101B40004FEAD12154F801F05FEA580128BFA0F50F
:101B5000807055EB30254FEA256348F0410878BF87
:101B600028F04008DAF8A00000F10400CAF8A0004C
:101B7000DAF8001078F580685CBF19F8010B51F8AD
:101B800020F0DAF888F019F801CB19F8010B4CEACB
:101B9000002C0CEB166C0CF460410FF20A0E4FEAAD
:101BA000D12154F801F05FEA580828BF40F4807052
:101BB000400840EA006348EB08080CF460410AF171
:101BC00024020FF20A0E4FEAD12152F801F0DAF89E
:101BD000A00000F10700CAF8A000DAF80010B8F57C
:101BE000E0685CBF19F8010B51F820F0DAF888F0D2
:101BF00019F8010B06EB00604FEA106C1BF80CC0E3
:101C000000F180704FEA10611BF801104CEA012CC2
:101C10004FEA15600CF460410AF124020FF2080E3D
:101C20004FEAD12152F801F0DAF8A00000F10600E5
:101C3000CAF8A000DAF80010B8F5C0685CBF19F85F
:101C4000010B51F820F0DAF888F019F801CB4FEACF
:101C500017600BF80C00DAF8A00000F10300CAF8D6
:101C6000A000DAF80010B8F540785CBF19F8010B55
:101C700051F820F0DAF888F019F801CB4FEA156036
:101C80000BF80C00DAF8A00000F10300CAF8A0007D
:101C9000DAF80010B8F540785CBF19F8010B51F87C
:101CA00020F0DAF888F019F801CB4FEA16600BF84B
:101CB0000C00DAF8A00000F10300CAF8A000DAF87E
:101CC0000010B8F540785CBF19F8010B51F820F00E
:101CD000DAF888F0A7F180774FEA2763DAF8A000F6
:101CE00000F10200CAF8A000DAF80010B8F5007898
:101CF0005CBF19F8010B51F820F0DAF888F035468E
:101D00004FEA2663DAF8A00000F10200CAF8A0004A
:101D1000DAF80010B8F500785CBF19F8010B51F83B
:101D200020F0DAF888F019F801CB19F8010B4CEA29
:101D3000002C4FEA17600CF460410AF124020FF204
:101D40000A0E4FEAD12152F801F0DAF8A00000F1B2
:101D50000400CAF8A000DAF80010B8F580685CBF8B
:101D600019F8010B51F820F0DAF888F019F801CBD6
:101D700019F8010B4CEA002C4FEA15600CF4604195
:101D80000AF124020FF2080E4FEAD12152F801F0B5
:101D9000DAF8A00000F10400CAF8A000DAF8001098
:101DA000B8F580685CBF19F8010B51F820F0DAF83B
:101DB00088F019F801CB19F8010B4CEA002C4FEA16
:101DC00016600CF460410AF124020FF20A0E4FEA89
:101DD000D12152F801F0DAF8A00000F10400CAF8AD
:101DE000A000DAF80010B8F580685CBF19F8010BA4
:101DF00051F820F0DAF888F018F0010F19F9010B0A
:101E000004BF8144A8F58078DAF8A00000F1020050
:101E1000CAF8A000DAF80010B8F500785CBF19F82D
:101E2000010B51F820F0DAF888F019F8010B10F8DE
:101E30000BC0584441784CEA012C0CEB176C4FEA6C
:101E400015600CF460410AF124020FF20A0E4FEA09
:101E5000D12152F801F0DAF8A00000F10600CAF82A
:101E6000A000DAF80010B8F5C0685CBF19F8010BE3
:101E700051F820F0DAF888F019F801CB06EB0C6C79
:101E80004FEA17604FEA1C610BF80100DAF8A00076
:101E900000F10400CAF8A000DAF80010B8F5806874
:101EA0005CBF19F8010B51F820F0DAF888F019F846
:101EB00001CB06EB0C6C4FEA15604FEA1C610BF886
:101EC0000100DAF8A00000F10400CAF8A000DAF876
:101ED0000010B8F580685CBF19F8010B51F820F0CC
:101EE000DAF888F019F801CB07EB0C6C4FEA1660B2
:101EF0004FEA1C610BF80100DAF8A00000F10400C1
:101F0000CAF8A000DAF80010B8F580685CBF19F8CC
:101F1000010B51F820F0DAF888F03D464FEA2763CC
:101F2000DAF8A00000F10200CAF8A000DAF8001008
:101F3000B8F500785CBF19F8010B51F820F0DAF819
:101F400088F019F801CB19F8010B4CEA002C0CEBC6
:101F5000176C4FEA15600CF460410AF124020FF28D
:101F60000A0E4FEAD12152F801F0DAF8A00000F190
:101F70000500CAF8A000DAF80010B8F5A0685CBF48
:101F800019F8010B51F820F0DAF888F04FEA1660E2
:101F90008AF88000DAF8A00000F10200CAF8A00078
:101FA000DAF80010B8F500785CBF19F8010B51F8A9
:101FB00020F0DAF888F019F801CB19F8010B4CEA97
:101FC000002C0CEB166C4FEA15600CF460410AF122
:101FD00024020FF20A0E4FEAD12152F801F0DAF88A
:101FE000A00000F10500CAF8A000DAF80010B8F56A
:101FF000A0685CBF19F8010B51F820F0DAF888F0FE
:1020000019F9013B4FEA0367DAF8A00000F102007A
:10201000CAF8A000DAF80010B8F500785CBF19F82B
:10202000010B51F820F0DAF888F019F8010B06EBF3
:1020300000604FEA106C1BF80CC000F180704FEA92
:1020400010611BF801104CEA012C0CF460410FF2F6
:102050000A0E4FEAD12154F801F040EA00634FEA3A
:102060000365DAF8A00000F10600CAF8A000DAF86B
:102070000010B8F5C0685CBF19F8010B51F820F0EA
:10208000DAF888F019F9013B4FEA0366DAF8A000A4
:1020900000F10200CAF8A000DAF80010B8F50078E4
:1020A0005CBF19F8010B51F820F0DAF888F019F844
:1020B00001CB1BF90C304FEA0367DAF8A00000F1FE
:1020C0000300CAF8A000DAF80010B8F540785CBF49
:1020D00019F8010B51F820F0DAF888F019F801CB63
:1020E0001BF90C304FEA0365DAF8A00000F1030099
:1020F000CAF8A000DAF80010B8F540785CBF19F80B
:10210000010B51F820F0DAF888F019F801CB1BF92F
:102110000C304FEA0366DAF8A00000F10300CAF8B9
:10212000A000DAF80010B8F540785CBF19F8010B90
:1021300051F820F0DAF888F02F464FEA2763DAF8F2
:10214000A00000F10200CAF8A000DAF80010B8F50B
:1021500000785CBF19F8010B51F820F0DAF888F02C
:1021600019F9013B4FEA0365DAF8A00000F102001B
:10217000CAF8A000DAF80010B8F500785CBF19F8CA
:10218000010B51F820F0DAF888F02E464FEA26636A
:10219000DAF8A00000F10200CAF8A000DAF8001096
:1021A000B8F500785CBF19F8010B51F820F0DAF8A7
:1021B00088F019F801CB19F8010B4CEA002C0CF44B
:1021C00060410FF20A0E4FEAD12154F801F040EAC3
:1021D00000634FEA0367DAF8A00000F10400CAF8D0
:1021E000A000DAF80010B8F580685CBF19F8010BA0
:1021F00051F820F0DAF888F019F801CB19F8010B42
:102200004CEA002C0CF460410FF2080E4FEAD12189
:1022100054F801F040EA00634FEA0365DAF8A000E1
:1022200000F10400CAF8A000DAF80010B8F58068E0
:102230005CBF19F8010B51F820F0DAF888F019F8B2
:1022400001CB19F8010B4CEA002C0CF460410FF2A1
:102250000A0E4FEAD12154F801F040EA00634FEA38
:102260000366DAF8A00000F10400CAF8A000DAF86A
:102270000010B8F580685CBF19F8010B51F820F028
:10228000DAF888F018F0010F19F9010B1CBF81442E
:10229000A8F58078DAF8A00000F10200CAF8A000E2
:1022A000DAF80010B8F500785CBF19F8010B51F8A6
:1022B00020F0DAF888F019F8010B10F80BC0584438
:1022C00041784CEA012C0CEB176C0CF460410FF2D6
:1022D0000A0E4FEAD12154F801F040EA00634FEAB8
:1022E0000365DAF8A00000F10500CAF8A000DAF8EA
:1022F0000010B8F5A0685CBF19F8010B51F820F088
:10230000DAF888F019F801CB0CEB166C0CF0FF0C26
:102310001BF90C304FEA0367DAF8A00000F1040063
:10232000CAF8A000DAF80010B8F580685CBF19F8A8
:10233000010B51F820F0DAF888F019F801CB0CEB1A
:10234000166C0CF0FF0C1BF90C304FEA0365DAF841
:10235000A00000F10400CAF8A000DAF80010B8F5F7
:1023600080685CBF19F8010B51F820F0DAF888F0AA
:1023700019F801CB0CEB176C0CF0FF0C1BF90C30AF
:102380004FEA0366DAF8A00000F10400CAF8A000E2
:10239000DAF80010B8F580685CBF19F8010B51F845
:1023A00020F0DAF888F028F04008DAF8A00000F110
:1023B0000200CAF8A000DAF80010B8F500785CBF97
:1023C00019F8010B51F820F0DAF888F019F801CB70
:1023D00019F8010B4CEA002C0CEB176C0CF4604163
:1023E0000FF2080E4FEAD12154F801F040EA0063E1
:1023F0004FEA0365DAF8A00000F10400CAF8A00073
:10240000DAF80010B8F580685CBF19F8010B51F8D4
:1024100020F0DAF888F09AF880604FEA06664FEA12
:102420002663DAF8A00000F10200CAF8A000DAF88A
:102430000010B8F500785CBF19F8010B51F820F0D6
:10244000DAF888F019F801CB19F8010B4CEA002CE6
:102450000CEB166C0CF460410FF2080E4FEAD12120
:1024600054F801F040EA00634FEA0367DAF8A0008D
:1024700000F10400CAF8A000DAF80010B8F580688E
:102480005CBF19F8010B51F820F0DAF888F019F860
:1024900001CB19F8010B4CEA002C0CEB166C0CF478
:1024A00060410FF20A0E4FEAD12154F801F040EAE0
:1024B00000634FEA0365DAF8A00000F10400CAF8EF
:1024C000A000DAF80010B8F580685CBF19F8010BBD
:1024D00051F820F0DAF888F019F801CB19F8010B5F
:1024E0004CEA002C0CEB176C0CF460410FF2080E58
:1024F0004FEAD12154F801F040EA00634FEA036645
:10250000DAF8A00000F10400CAF8A000DAF8001020
:10251000B8F580685CBF19F8010B51F820F0DAF8C3
:1025200088F019F8010BB7EB00634FEA236348F01A
:102530000108DAF8A00000F10200CAF8A000DAF8F9
:10254000001078F500785CBF19F8010B51F820F005
:10255000DAF888F019F8010B06EB00604FEA106C0E
:102560001BF80CC000F180704FEA10611BF80110DD
:102570004CEA012C0CF460410FF2080E4FEAD12115
:1025800054F801F0B5EB00634FEA236348F001080B
:10259000DAF8A00000F10600CAF8A000DAF800108E
:1025A00078F5C0685CBF19F8010B51F820F0DAF833
:1025B00088F019F801CB1BF80C00B7EB00634FEA69
:1025C000236348F00108DAF8A00000F10300CAF81C
:1025D000A000DAF8001078F540785CBF19F8010B1C
:1025E00051F820F0DAF888F019F801CB1BF80C004C
:1025F000B5EB00634FEA236348F00108DAF8A00066
:1026000000F10300CAF8A000DAF8001078F540786D
:102610005CBF19F8010B51F820F0DAF888F019F8CE
:1026200001CB1BF80C00A0F1010040EA00630BF89D
:102630000C00DAF8A00000F10500CAF8A000DAF8F2
:102640000010B8F5A0685CBF19F8010B51F820F034
:10265000DAF888F007F180774FEA2763DAF8A0000C
:1026600000F10200CAF8A000DAF80010B8F500780E
:102670005CBF19F8010B51F820F0DAF888F019F86E
:10268000010BB5EB00634FEA236348F00108DAF869
:10269000A00000F10200CAF8A000DAF8001078F5F6
:1026A00000785CBF19F8010B51F820F0DAF888F0D7
:1026B000A6F180764FEA2663DAF8A00000F1020066
:1026C000CAF8A000DAF80010B8F500785CBF19F875
:1026D000010B51F820F0DAF888F019F801CB19F85D
:1026E000010B4CEA002C0CF460410FF20A0E4FEA89
:1026F000D12154F801F0B7EB00634FEA236348F0AF
:102700000108DAF8A00000F10400CAF8A000DAF825
:10271000001078F580685CBF19F8010B51F820F0C3
:10272000DAF888F019F801CB19F8010B4CEA002C03
:102730000CF460410FF2080E4FEAD12154F801F079
:10274000B5EB00634FEA236348F00108DAF8A00014
:1027500000F10400CAF8A000DAF8001078F58068EB
:102760005CBF19F8010B51F820F0DAF888F019F87D
:1027700001CB19F8010B4CEA002C0CF460410FF26C
:102780000A0E4FEAD12154F801F0A0F1010040EA0D
:1027900000630CF460410AF124020FF20A0E4FEAC2
:1027A000D12152F801F0DAF8A00000F10600CAF8D1
:1027B000A000DAF80010B8F5C0685CBF19F8010B8A
:1027C00051F820F0DAF888F013F0FF0F19F9010B37
:1027D0001CBF8144A8F58078DAF8A00000F102005F
:1027E000CAF8A000DAF80010B8F500785CBF19F854
:1027F000010B51F820F0DAF888F019F8010B10F805
:102800000BC0584441784CEA012C0CEB176C0CF4CB
:1028100060410FF20A0E4FEAD12154F801F0B5EBF6
:1028200000634FEA236348F00108DAF8A00000F1E2
:102830000500CAF8A000DAF8001078F5A0685CBFBF
:1028400019F8010B51F820F0DAF888F019F801CBEB
:1028500006EB0C6C4FEA1C601BF80000B5EB006344
:102860004FEA236348F00108DAF8A00000F1040001
:10287000CAF8A000DAF8001078F580685CBF19F893
:10288000010B51F820F0DAF888F019F801CB06EBCB
:102890000C6C4FEA1C601BF80000A0F1010040EA3C
:1028A00000634FEA1C610BF80100DAF8A00000F1A8
:1028B0000600CAF8A000DAF80010B8F5C0685CBFDE
:1028C00019F8010B51F820F0DAF888F028F0080820
:1028D000DAF8A00000F10200CAF8A000DAF800104F
:1028E000B8F500785CBF19F8010B51F820F0DAF860
:1028F00088F019F801CB19F8010B4CEA002C0CEB0D
:10290000176C0CF460410FF20A0E4FEAD12154F813
:1029100001F0B5EB00634FEA236348F00108DAF8F1
:10292000A00000F10400CAF8A000DAF8001078F561
:1029300080685CBF19F8010B51F820F0DAF888F0D4
:1029400019F801CB19F8010B4CEA002C0CEB166CB2
:102950000CF460410FF2080E4FEAD12154F801F057
:10296000B5EB00634FEA236348F00108DAF8A000F2
:1029700000F10400CAF8A000DAF8001078F58068C9
:102980005CBF19F8010B51F820F0DAF888F019F85B
:1029900001CB19F8010B4CEA002C0CEB166C0CF473
:1029A00060410FF20A0E4FEAD12154F801F0A0F174
:1029B000010040EA00630CF460410AF124020FF2C6
:1029C0000A0E4FEAD12152F801F0DAF8A00000F126
:1029D0000700CAF8A000DAF80010B8F5E0685CBF9C
:1029E00019F8010B51F820F0DAF888F019F8010B0A
:1029F000B6EB00634FEA236348F00108DAF8A00061
:102A000000F10200CAF8A000DAF8001078F50078AA
:102A10005CBF19F8010B51F820F0DAF888F019F8CA
:102A2000010B06EB00604FEA106C1BF80CC000F1C4
:102A300080704FEA10611BF801104CEA012C0CF475
:102A400060410FF20A0E4FEAD12154F801F05FEA1B
:102A5000580175EB006505F07F454FEA256348F0A6
:102A6000410878BF28F04008DAF8A00000F106001D
:102A7000CAF8A000DAF8001078F5C0685CBF19F851
:102A8000010B51F820F0DAF888F019F801CB1BF8A7
:102A90000C00B6EB00634FEA236348F00108DAF854
:102AA000A00000F10300CAF8A000DAF8001078F5E1
:102AB00040785CBF19F8010B51F820F0DAF888F083
:102AC00019F801CB1BF80C005FEA580175EB0065A3
:102AD00005F07F454FEA256348F0410878BF28F0AC
:102AE0004008DAF8A00000F10300CAF8A000DAF804
:102AF000001078F540785CBF19F8010B51F820F010
:102B0000DAF888F019F801CB1BF80C0000F101008D
:102B100040EA00630BF80C00DAF8A00000F10500B1
:102B2000CAF8A000DAF80010B8F5A0685CBF19F880
:102B3000010B51F820F0DAF888F006F180764FEAC0
:102B40002663DAF8A00000F10200CAF8A000DAF863
:102B50000010B8F500785CBF19F8010B51F820F0AF
:102B6000DAF888F019F8010B5FEA580175EB006597
:102B700005F07F454FEA256348F0410878BF28F00B
:102B80004008DAF8A00000F10200CAF8A000DAF864
:102B9000001078F500785CBF19F8010B51F820F0AF
:102BA000DAF888F0DAF8A00000F10200CAF8A00014
:102BB000DAF80010B8F500785CBF19F8010B51F88D
:102BC00020F0DAF888F019F801CB19F8010B4CEA7B
:102BD000002C0CF460410FF20A0E4FEAD12154F898
:102BE00001F0B6EB00634FEA236348F00108DAF81E
:102BF000A00000F10400CAF8A000DAF8001078F58F
:102C000080685CBF19F8010B51F820F0DAF888F001
:102C100019F801CB19F8010B4CEA002C0CF46041B7
:102C20000FF2080E4FEAD12154F801F05FEA580183
:102C300075EB006505F07F454FEA256348F04108D4
:102C400078BF28F04008DAF8A00000F10400CAF8C4
:102C5000A000DAF8001078F580685CBF19F8010B65
:102C600051F820F0DAF888F019F801CB19F8010BC7
:102C70004CEA002C0CF460410FF2080E4FEAD1210F
:102C800054F801F000F1010040EA00630CF46041E7
:102C90000AF124020FF2080E4FEAD12152F801F096
:102CA000DAF8A00000F10600CAF8A000DAF8001077
:102CB000B8F5C0685CBF19F8010B51F820F0DAF8DC
:102CC00088F013F0FF0F19F9010B04BF8144A8F538
:102CD0008078DAF8A00000F10200CAF8A000DAF863
:102CE0000010B8F500785CBF19F8010B51F820F01E
:102CF000DAF888F019F8010B10F80BC05844417845
:102D00004CEA012C0CEB176C0CF460410FF2080E2E
:102D10004FEAD12154F801F05FEA580175EB0065E4
:102D200005F07F454FEA256348F0410878BF28F059
:102D30004008DAF8A00000F10500CAF8A000DAF8AF
:102D4000001078F5A0685CBF19F8010B51F820F06D
:102D5000DAF888F019F801CB06EB0C6C4FEA1C602E
:102D60001BF800005FEA580175EB006505F07F4530
:102D70004FEA256348F0410878BF28F04008DAF8A8
:102D8000A00000F10400CAF8A000DAF8001078F5FD
:102D900080685CBF19F8010B51F820F0DAF888F070
:102DA00019F801CB06EB0C6C4FEA1C601BF8000015
:102DB00000F1010040EA00634FEA1C610BF80100DA
:102DC000DAF8A00000F10600CAF8A000DAF8001056
:102DD000B8F5C0685CBF19F8010B51F820F0DAF8BB
:102DE00088F048F00808DAF8A00000F10200CAF8FC
:102DF000A000DAF80010B8F500785CBF19F8010BF4
:102E000051F820F0DAF888F019F801CB19F8010B25
:102E10004CEA002C0CEB176C0CF460410FF2080E1E
:102E20004FEAD12154F801F05FEA580175EB0065D3
:102E300005F07F454FEA256348F0410878BF28F048
:102E40004008DAF8A00000F10400CAF8A000DAF89F
:102E5000001078F580685CBF19F8010B51F820F07C
:102E6000DAF888F019F801CB19F8010B4CEA002CBC
:102E70000CEB166C0CF460410FF2080E4FEAD121F6
:102E800054F801F05FEA580175EB006505F07F45E5
:102E90004FEA256348F0410878BF28F04008DAF887
:102EA000A00000F10400CAF8A000DAF8001078F5DC
:102EB00080685CBF19F8010B51F820F0DAF888F04F
:102EC00019F801CB19F8010B4CEA002C0CEB166C2D
:102ED0000CF460410FF2080E4FEAD12154F801F0D2
:102EE00000F1010040EA00630CF460410AF12402A1
:102EF0000FF2080E4FEAD12152F801F0DAF8A000E3
:102F000000F10700CAF8A000DAF80010B8F5E06890
:102F10005CBF19F8010B51F820F0DAF888F019F8C5
:102F200001CB19F8010B4CEA002C0CEB166C0CF4DD
:102F300060410FF20A0E4FEAD12154F801F05FEA26
:102F4000580175EB006505F07F454FEA256348F0B1
:102F5000410878BF28F04008DAF8A00000F1050029
:102F6000CAF8A000DAF80010B8F5A0685CBF19F83C
:102F7000010B51F820F0DAF888F019F801CB19F8B4
:102F8000010B4CEA002C0CEB176C0CF460410FF2B7
:102F90000A0E4FEAD12154F801F05FEA580175EBAF
:102FA000006505F07F454FEA256348F0410878BF8A
:102FB00028F04008DAF8A00000F10500CAF8A000E7
:102FC000DAF80010B8F5A0685CBF19F8010B51F8E9
:102FD00020F0DAF888F009F10109DAF8A00000F130
:102FE0000400CAF8A000DAF80010B8F580685CBFE9
:102FF00019F8010B51F820F0DAF888F019F801CB34
:103000001BF80C005FEA580128BFA0F5807055EB53
:1030100030254FEA256348F0410878BF28F0400882
:10302000DAF8A00000F10500CAF8A000DAF80010F4
:10303000B8F5A0685CBF19F8010B51F820F0DAF878
:1030400088F019F8010B06EB00604FEA106C1BF8D2
:103050000CC000F180704FEA10611BF801104CEABF
:10306000012CDAF8A00000F10800CAF8A000DAF894
:103070000010B8F500685CBF19F8010B51F820F09A
:10308000DAF888F019F801CBDAF8A00000F10500B1
:10309000CAF8A000DAF80010B8F5A0685CBF19F80B
:1030A000010B51F820F0DAF888F04FF001010BF035
:1030B00019FBDAF8A00000F10200CAF8A000DAF863
:1030C0000010B8F500785CBF19F8010B51F820F03A
:1030D000DAF888F0D50700083F080008AB30000890
:1030E00043300008AB30000899080008CB080008FE
:1030F00085300008030900084D0900087B09000815
:10310000AB300008AB300008A7090008ED09000843
:10311000AB300008490A00087B0A0008AB30000801
:10312000AB300008D72F0008C90A0008030B0008BD
:10313000AB300008470B00086D0B0008AB300008EF
:10314000AB300008AB300008B70B0008010C0008DA
:10315000AB300008610C0008C30C0008AB3000085D
:10316000AB3000081D0D00085D0D00088F0D000834
:10317000AB300008CD0D0008170E0008450E000802
:10318000AB3000087B0E0008CF0E0008150F0008BA
:10319000AB300008770F0008A90F0008AB3000081B
:1031A000AB300008AB300008F70F00083110000802
:1031B000AB3000087B100008A1100008AB300008FD
:1031C000AB300008AB300008EB10000835110008E8
:1031D000AB3000089B11000819120008AB30000842
:1031E000AB300008AB30000873120008A5120008CD
:1031F000AB300008D91200080B130008391300087F
:10320000AB30000865130008A7130008ED13000891
:10321000AB3000084714000879140008AB300008F0
:10322000AB300008AB300008C714000801150008D7
:10323000AB3000084115000867150008AB300008E6
:10324000AB300008AB300008B1150008FB150008D2
:10325000AB30000859160008B3160008AB30000860
:10326000AB300008AB3000082117000867170008D2
:10327000FD2F0008A9170008E3170008251800080B
:10328000AB30000859180008B51800080F190008DD
:10329000AB30000875190008A7190008AB3000080A
:1032A000AB300008AB300008091A0008571A0008B4
:1032B000AB300008A51A0008CB1A0008AB30000894
:1032C000AB300008AB300008291B0008871B000842
:1032D000AB300008AB300008F11B0008AB30000831
:1032E000AB3000084B1C0008791C0008A71C000824
:1032F000AB300008D51C0008AB300008FF1C0008EC
:10330000AB300008271D00086D1D0008B31D000824
:10331000AB300008F91D00082B1E0008AB30000878
:10332000AB300008791E0008AF1E0008E51E00083B
:10333000AB3000081B1F0008431F00088D1F00084A
:10334000AB300008AB300008B71F0008AB300008F6
:10335000AB300008012000082B2000088520000861
:10336000AB300008AF200008DD2000080B2100086A
:10337000AB30000839210008612100088B210008CA
:10338000AB300008B3210008F92100083F220008F3
:10339000AB30000885220008B7220008AB300008D7
:1033A000AB300008052300083B2300087123000808
:1033B000AB300008A7230008CD230008172400081D
:1033C000AB300008452400088F240008D9240008E9
:1033D000AB3000082325000855250008AB30000855
:1033E000AB300008B3250008E92500081F260008B7
:1033F000AB300008552600087F260008B1260008DB
:10340000AB300008DB260008252700086F270008DE
:10341000AB300008C9270008FB270008AB300008C4
:10342000AB300008AB3000084D2800088B2800089E
:10343000AB300008CD280008F3280008AB300008A6
:10344000AB300008AB300008412900088F29000884
:10345000AB300008ED2900081F2A0008AB30000837
:10346000AB3000088B2A0008C12A0008052B000891
:10347000AB3000083B2B0008652B0008A52B00088B
:10348000AB300008C72B0008112C0008692C00087D
:10349000AB300008C32C0008F52C0008AB30000846
:1034A000AB300008AB300008552D0008A12D0008F6
:1034B000AB300008E32D0008092E0008AB300008EF
:1034C0007B2F0008AB300008652E0008C12E0008D5
:1034D0001F2F00082DE9F04FDFF880A1DFF880B141
:1034E000DBF800B00AF1640191E8F80380449AF82F
:1034F000A800012836D0DAF8A00000F10000CAF8D0
:10350000A000DAF80010B8F100085CBF19F8010B50
:1035100051F820F0DAF888F09AF8A400012805D0D4
:103520000AF1640080E8F803BDE8F08F4FF0000076
:10353000CAF8A4004FF6FA7C00F030F8A8F5E0686D
:10354000EEE7DAF8A00000F10000CAF8A000DAF80F
:103550000010B8F100085CBF19F8010B51F820F019
:10356000DAF888F018F0040FEBD14FF00000CAF839
:10357000A8004FF6FE7C00F011F8DAF8A00000F188
:103580000700CAF8A000DAF80010B8F5E0685CBFE0
:1035900019F8010B51F820F0DAF888F0DAF8840015
:1035A000A9EB00004FEA1021DAF8802002F8011997
:1035B00042F4807202F801098AF8802008F04D0078
:1035C00013F0004F18BF40F0800013F0FF0F08BF4A
:1035D00040F0020040F02000DAF8802002F80109F3
:1035E0008AF8802048F00408DAF8600010F80C909F
:1035F0006044427849EA022909F460410AF1440230
:103600004FEAD1201058CAF88400814470474DF821
:1036100004ED4FF000054FF000064FF000074FF0AB
:1036200000030AF104040E48006800F58070CAF82F
:1036300080004FF00000CAF8A400CAF8A8004FF0BC
:1036400000084FF6FC7CFFF7A9FF0AF1640080E850
:10365000F8030449CAF888105DF804FBE400002070
:1036600084000020193500081549002009680A79EE
:1036700012B18A6B02B1012091F848201AB1CA6FC9
:103680000AB140F0020091F88B2022B1D1F8A020BD
:103690000AB140F0040091F8AB2022B1D1F8C42067
:1036A0000AB140F0080091F8D0200AB140F01000B3
:1036B00091F8F31009B140F0800040F040007047ED
:1036C000A80000200EB5064A41F480411268CDE9F9
:1036D00000218DF8080068460AF06CFC0EBD000061
:1036E000840100200EB5094BC0F3001241F4804163
:1036F0001B6883F8D020064A1268CDE900218DF8B6
:10370000080068460AF056FC0EBD0000A800002024
:1037100084010020FEE7704770B5B3F5804F05D0F7
:103720006FF0704140F82210002070BD50F8223038
:10373000084C2340D1E9004544EA05148D688E8980
:103740002D0245EA064589692C430C431C4340F889
:103750002240E9E70000F0CFF0B50C6850F82450A3
:10376000114A1540D1E90123D1E903671A433E43C9
:1037700032434E6932438E693243CE6932430E6A18
:1037800032434E6A32438E6A3243CE6A3243CE6B44
:10379000096B32430A432A43082B01D142F040020D
:1037A00040F824200020F0BD8000F0FF30B500EB91
:1037B00082004268D1E9003443EA04138C688D89A1
:1037C000240244EA054423430C8A084D02F0404297
:1037D00005EB045423430C7D6D0105EB04648969FA
:1037E00023430B4313434360002030BD0000F0FF30
:1037F00090F83510022903D08021416501207047DF
:10380000052180F835100068016821F00101016090
:103810000020704770B5044600F0FEF80546601CB5
:1038200002D004480078044400F0F6F8401BA0429F
:10383000FAD370BD040000202DE9F84FDFF88C9119
:10384000002209F1040A0AF1040B4FF00F080BF1F2
:10385000040E01260B6896403340B34271D14C6888
:10386000022C01D0122C11D1D40800EB84073D6A40
:103870005407E40E08FA04FC25EA0C05D1F810C040
:103880000CFA04FC4CEA050CC7F820C00768540089
:10389000032591F804C0A5400CF0030CAF430CFACB
:1038A00004FC4CEA070CC0F800C04F68012F05D09B
:1038B000022F03D0112F01D0122F11D18768D1F818
:1038C0000CC0AF430CFA04FC4CEA070CC0F808C06B
:1038D0004768B7430E79C6F3001696403E434660EC
:1038E000C668AE438D68A5403543C5604C68E400AA
:1038F00065D5374C256845F480452560246822F05D
:10390000030504F480440094324C2E19D6F808784C
:103910009407250F08FA05F4A7432F4CA04201D1C4
:10392000002424E02D4CA04201D101241FE02C4CA6
:10393000A04201D102241AE02A4CA04202D1032461
:1039400015E03CE0284CA04201D104240FE0274CB4
:10395000A04201D105240AE0254CA04201D1062451
:1039600005E0244CA04201D1072400E00824AC402B
:103970003C43C6F80848D9F800404D464E689C4381
:10398000F60300D51C432C60DAF8004055464E681B
:103990009C43B60300D51C432C60DBF800405D4619
:1039A0004E689C43F60200D51C432C60DEF80040B4
:1039B00075464E689C43B60200D51C432C60521CD1
:1039C000102AFFF446AFBDE8F88F0000003C01402C
:1039D0004438024000300140000002400004024030
:1039E00000080240000C0240001002400014024097
:1039F00000180240001C02400069084000D001206D
:103A000070470AB1816170470904FBE7014800680B
:103A1000000C7047002004E00148806870470000F7
:103A200004000020024881680278114481607047D8
:103A300004000020094810B5016841F400710160DC
:103A4000016841F480610160052000F057F80F2003
:103A500000F006F800F024F8002010BD003C024001
:103A600070B50D4D04464FF47A712878B1FBF0F033
:103A70000A490968B1FBF0F001F072F848B9102C5E
:103A800007D200222146501E00F018F800206C607A
:103A900070BD012070BD0000040000200000002067
:103AA0007047002809DB00F01F0201219140400906
:103AB000800000F1E020C0F800117047F0B40E4B18
:103AC0001B68C3F30223C3F10704042C00D90424A8
:103AD0001D1D072D01D2002300E0DB1E012606FA82
:103AE00004F56D1E0D409D409E40761E164045EA31
:103AF0000601F0BC0AF010BA0CED00E0064A00F036
:103B0000070110684FF6FF03184040EA01200349FF
:103B100008431060704700000CED00E00000FA055B
:103B20002DE9F0470D46040065D0DFF81491D9F86F
:103B30000000EFB200F00F00A84207D289F8007031
:103B4000D9F8000000F00F00A84254D120683D4E83
:103B5000810712D5400703D5306840F4E05030604B
:103B60002078000703D5306840F46040306030684A
:103B7000A16820F0F000084330602078C0072DD005
:103B8000304960680839012812D0022813D0032870
:103B900011D00968890700292DDA316821F0030165
:103BA00001433160FFF738FF804641F2883A0EE06A
:103BB00009688903EFE709688901ECE7FFF72CFF43
:103BC000A0EB0801514502D90320BDE8F087306819
:103BD000616800F00C00B0EB810FEFD1D9F8001054
:103BE000484601F00F01A94207D90770006800F0AC
:103BF0000F00A84201D00120E7E72078400705D553
:103C00003068E16820F4E050084330602078000715
:103C100006D53068216920F4604040EAC100306078
:103C200000F036F83168084AC1F30311515CC8400E
:103C3000064908600F20FFF713FF0020C5E70000CA
:103C4000003C0240083802409E2A01080000002083
:103C50000448054900680968044AC1F38221515C9F
:103C6000C84070470000002008380240AE2A010812
:103C70000448054900680968044AC1F34231515CAF
:103C8000C84070470000002008380240AE2A0108F2
:103C9000154810B5006810F00C01144813D04310FB
:103CA00004290FD008290ED10F4C241F216801F0E0
:103CB0003F022168490207D52068C0F38810A0FBA5
:103CC000030106E0184610BD2168C1F38811A1FB6D
:103CD00000010023FCF7F9FA2168C1F30141491CF6
:103CE0004900B0FBF1F010BD083802400024F40098
:103CF0002DE9F84F040073D02078BD4DC00748D09F
:103D0000BB4808300168C1F38101012908D000686F
:103D1000C0F3810002280AD1281D0068400206D5A0
:103D20002868800335D560680028E4D031E06068F9
:103D3000B0F5803F10D0B0F5A02F286810D020F447
:103D400080302860286820F4802028606068A0B156
:103D5000FFF762FE06460CE0286840F48030F4E786
:103D600040F480202860F7E7FFF756FE801B6428A8
:103D700072D828688003F7D50BE0FFF74DFE0646A2
:103D800004E0FFF749FE801B6428F1D8286880030F
:103D9000F7D42078DFF85C9280074FF0000A3ED518
:103DA00093480830016811F00C0F09D00068C0F387
:103DB000810002280BD18E48001D0068400206D405
:103DC0002868800715D5E068012809D111E0E0686E
:103DD000B8B10120C9F80000FFF71EFE064605E055
:103DE00003E1FFF719FE801B0228C1D8286880076D
:103DF000F7D52868216920F0F80040EAC100286062
:103E00000DE0C9F800A0FFF707FE064604E0FFF743
:103E100003FE801B02281FD828688007F7D420786B
:103E2000000722D5724F74496069743770B1012060
:103E30000860FFF7F1FD064604E0FFF7EDFD801B8B
:103E4000022809D838688007F7D50EE0C1F800A02D
:103E5000FFF7E2FD064605E081E0FFF7DDFD801B90
:103E600002287CD838688007F7D42078400769D5C5
:103E7000DFF87CB14FF000080BF1400BDBF80000DD
:103E8000C0000CD4DBF8001041F08051CBF80010DA
:103E9000DBF800004FF0010800F080500090574F11
:103EA0003868C0050FD4386840F480703860FFF778
:103EB000B3FD064604E0FFF7AFFD801B02284ED895
:103EC0003868C005F7D54A4FA068703701280FD071
:103ED0000528386810D020F001003860386820F0DC
:103EE00004003860A068B0B1FFF796FD06460EE00A
:103EF000386840F00100F4E740F004003860F7E76C
:103F0000FFF78AFD811B41F28830814265D838680D
:103F10008007F5D50DE0FFF77FFD064606E0FFF7C9
:103F20007BFD811B41F28830814256D8386880077A
:103F3000F5D4B8F1000F05D0DBF8001021F0805166
:103F4000CBF80010A069C8B3294908310968C1F34A
:103F50008101022949D00228504607D000E03CE008
:103F6000C9F86000FFF758FD044639E04F46C9F82C
:103F70006000FFF751FD064604E0FFF74DFD801B92
:103F800002282AD828688001F7D4D4E90701084319
:103F9000A16A1B4A490802EB0141626A41EA8211A7
:103FA000084394F82C1040EA01611148001D01609B
:103FB00001203866FFF730FD044605E013E0FFF707
:103FC0002BFD001B022808D828688001F7D50AE0DD
:103FD000FFF722FD001B022802D90320BDE8F88F5D
:103FE00028688001F4D40020F8E70120F6E70000FB
:103FF0000038024000004742800E474200700040F7
:104000000000FFFFFEB5044603200D4684F834008F
:10401000606C032820D0B5F5805F1DD0B5F5006F2A
:1040200005D045B1A06B40F00060A06309E02046D8
:1040300009F041F902E0204609F016F9A16B0143AD
:10404000A163A06B012658B1216840F2FF5088633C
:1040500084F834600120FEBDA06B40F08050E4E79E
:10406000211DD4E905070EC9CDE90050029720684B
:1040700008F071FC84F834600020FEBDF0B5426E9B
:10408000120E93090B70C2F383034B7002F003020C
:104090008A70426E120CCA70B0F86420120A0A715B
:1040A00090F864204A71826E4FF6FF73120E03EA95
:1040B0000212CA80826ECB88C2F3074243EA12130F
:1040C000CB8002F00F020A72B0F86820C2F3072218
:1040D000D3094B72C2F380138B72C2F34013CB72BD
:1040E000C2F300130B7300244C73456C4FF400763D
:1040F00001236DB1012D43D0026840F2FF5191635D
:10410000816B41F08051816380F834300120F0BD33
:104110009207120D0A6190F868200D6945EA820243
:104120000A61C26E0D69120E45EA92150D61C2F365
:10413000C2050D7502F007024A75C26EC2F307424E
:1041400055098D75C2F38205CD759207520F0A7617
:10415000B0F86C200D7EC2F3072245EAD2150D7629
:104160000D696D1C45650F7EBF1CBD4045650F7A0E
:1041700003FA07F787657F0A7D43C0E917561CE0FD
:1041800090F868209206920A0A61C26E0D69120EBA
:1041900045EA02220A61C26E0D69C2F30742154365
:1041A0000D61B0F86C200D69C2F307226D1C4FEA57
:1041B00085254565C0E916650666C2F3801501F8D8
:1041C000195F4FEA82624FEA52624A7010F86C2F10
:1041D0004D7845EAD2154D7002F07F028A70426830
:1041E0004FEA12624FEAD215CD70C2F341150D713C
:1041F000C2F382054D714FEA82724FEA12728A71E0
:1042000042688D79C2F3074245EA92158D71C2F377
:104210004015CD710C7202F001024A728288C2F31D
:1042200007224FEAD2148C72C2F38014CC72C2F30C
:1042300040140C73C2F300144C73C2F381048C73EA
:1042400002F00302CA7300794FEA500008744B74FD
:104250004FF00000F0BD426C0A60826C4A60C26C94
:104260008A60026DCA60426D0A61826D4A61C26DE8
:104270008A61006EC8610020704738B50025044689
:104280000095B0F850000104206808F0DDFC28B962
:104290000021206808F059FB0090284610B1A16B5E
:1042A0000143A1630098C0F3432038BD70B50400FA
:1042B00004D094F83400002510B105E0012070BD51
:1042C0002577204600F038F8032084F83400204693
:1042D00000F008F8A5632563012084F8340000206D
:1042E00070BD0000FEB50025044676200095CDE99E
:1042F00001502B462A462946206808F02CFB0D4E1B
:1043000046F8A05F206808F038FB012535600220E0
:10431000FFF780FA204608F036FF20B9204608F063
:10432000BFFE002805D084F83450A16B0143A1637F
:104330000120FEBD008025421D4800B5016887B000
:1043400041F400610160006800F4006005901848C5
:104350001438016841F480010160016801F48001B2
:104360000591016841F004010160016801F0040158
:104370000591016841F0080101600068694600F09C
:10438000080005904FF4F8500090022001900120A1
:104390000290032003900C2004900648FFF74CFA8B
:1043A0000420009069460448FFF746FA07B000BDB4
:1043B0004438024000080240000C02402DE9F04F52
:1043C00087B09B4616460D460446109FFFF724FB18
:1043D00081463DB194F83400012807D0A06B40F02D
:1043E00000500DE0A06B40F0006009E00020A063E9
:1043F000E26D06EB0B01914204D9A06B40F0007016
:10440000A06384E0032184F8341021688046C862E8
:10441000606C012800D076024FF40071206808F02B
:10442000FBFA40F2FF5A012140B12368C3F838A0DB
:10443000A26B0243A26384F8341068E04FF0FF30AF
:1044400000904FEA4B200190902002900220CDE98D
:104450000308059188466946206808F060FABBF1B8
:10446000010F06D9022020633146206808F060FB66
:1044700005E0C4F830803146206808F071FB38B39D
:104480002268C2F838A0A16B0143A1633DE0406BF4
:10449000000409D50026206808F073FA45F82600C4
:1044A000761C082EF7D320352FB1FFF7B5FAA0EB15
:1044B0000900B8420CD32168C1F838A0A06B40F0C5
:1044C0000040A06384F83480032007B0BDE8F08F7B
:1044D0002068416B40F22A321142D8D0416BC905A5
:1044E00009D5BBF1010F06D9616C032903D008F08F
:1044F000DBFB0028C4D12068416B090709D5C0F84F
:1045000038A0A06B40F0080025E084F8348001203A
:10451000DBE7416B890705D5C0F838A0A06B40F0F8
:10452000020018E0416B890617D5C0F838A0A06BCF
:1045300040F020000FE008F024FA01C52FB1FFF78A
:104540006BFAA0EB0900B84207D32168C1F838A084
:10455000A06B40F00040A063D7E72068416B890260
:10456000E9D42168C1F838A084F834800020ACE791
:104570002DE9F04F87B09A4615460E460446DDF801
:1045800040B0FFF749FA06903EB194F83400012894
:1045900007D0A06B40F000500DE0A06B40F0006031
:1045A00009E00020A063E26D05EB0A01914204D905
:1045B000A06B40F00070A0632EE0032184F834105B
:1045C00021680020C862606C012800D06D024FF4A1
:1045D0000071206808F020FA40F2FF584FF00109FE
:1045E000002860D1BAF1010F06D9202020632946A6
:1045F000206808F073FB05E010202063294620683E
:1046000008F084FB07000BD02168C1F83880A06B4C
:1046100038436AE084F83490012007B0BDE8F08F99
:104620004FF0FF3000904FEA4A2001909020029016
:104630000020CDE9040903906946206808F06FF96D
:104640001FE0406B400409D5002506EB850120687A
:1046500008F0AAF96D1C082DF7D32036BBF1000F26
:1046600005D0FFF7D9F90699411A594509D32168B0
:10467000C1F83880A06B3843A06384F834900320DD
:10468000CBE72068416B40F21A321142D9D0416B1E
:10469000C9050FD5BAF1010F0CD9616C032909D0F6
:1046A00008F002FB30B12268C2F83880A16B0143E8
:1046B000A163AFE72068416B090705D5C0F83880D2
:1046C000A06B40F0080010E0416B890705D5C0F8E9
:1046D0003880A06B40F0020007E0416BC0F83880E2
:1046E000C90604D5A06B40F01000A06392E784F8DF
:1046F0003490002091E770B5040004D094F8510084
:10470000002510B106E0012070BD84F8505020460D
:1047100000F038F8022084F851002068016821F088
:1047200040010160D4E901010843D4E903121143B7
:10473000084361690843218B01F400710843E16972
:104740000843216A0843A16A084321680860A069F8
:10475000042101EA1040616A084321684860A06AA8
:10476000B0F5005F02D12168E06A08612068C16984
:1047700021F40061C1616565012084F851000020C9
:1047800070BD0000114800B5016887B041F002011A
:104790000160006800F0020005900C4814300168C8
:1047A00041F4805101600068012100F480500590BF
:1047B000382000900220CDE90101039005200490EB
:1047C00069460348FFF738F807B000BD30380240AB
:1047D000000402402DE9F84F044690F850000125EE
:1047E00000270A9E984692468B4601280FD001204A
:1047F00084F85000FFF710F994F851108146626870
:10480000404601290CD0B2F5827F07D102E0022098
:10481000BDE8F88FA2680AB9042901D0022703E194
:10482000BBF1000F3CD0BAF1000F39D0B8F1000F46
:1048300036D094F85110042902D0052184F8511083
:1048400000216165C4F838A0A4F83E80A4F83C803B
:10485000C4F830B0A4F83680A4F8348021646164D0
:10486000A16A4FF40058414509D121680A6822F431
:1048700000520A6021680A6842F400520A60216806
:104880000A68520603D40A6842F040020A60E168EE
:10489000B1F5006F616805D0F1B301284DD08DE00E
:1048A0000127C1E009B1012840D1206B21680088AF
:1048B000C860206B801C2063E08E401EE08635E0DF
:1048C00020688168890717D5E18EA9B1012D13D120
:1048D000216B0988C160206B801C2063E08E401E24
:1048E000E086E08E002538B9A06A404504D12068F2
:1048F000016841F48051016020688168C9070DD0CA
:10490000E18F59B1C068A16B0880A06B801CA063C7
:10491000E08F401EE08700E00FE00125FFF77CF804
:10492000A0EB0900B04201D3701C5DD1E08E0028DD
:10493000C6D1E08F0028C3D146E0206B2168007803
:104940000873206B401C2063E08E401EE08635E03B
:1049500020688168890717D5E18EA9B1012D13D18F
:10496000216B09780173206B401C2063E08E401E90
:10497000E086E08E002538B9A06A404504D1206861
:10498000016841F48051016020688168C9070BD03B
:10499000E18F49B1C068A16B0870A06B401CA06397
:1049A000E08F401EE0870125FFF736F8A0EB0900F5
:1049B000B04202D3701C01D016E0AEB1E08E0028E8
:1049C000C6D1E08F0028C3D1A06A404510D1012292
:1049D000334611462046CDF8009008F031FD28B14D
:1049E000606D40F00200606503271DE02068C0682C
:1049F00020688168C90607D5616D41F002016165D3
:104A00004FF6EF71816001274A463146204608F093
:104A1000EBFC18B101272020606505E0A06818B9FB
:104A20002068C16880680090012084F8510000204F
:104A300084F850003846EBE670B515460E46040083
:104A400003D094F8490010B107E0012070BD0020A8
:104A500084F84800204600F01BF804F108012068A3
:104A6000FEF77AFE3146A2682068FEF79FFED4E981
:104A700001022946236BFEF74FFEA168206850F81B
:104A8000212042F0010240F82120002070BD0000EA
:104A9000284810B5016886B041F001010160006846
:104AA00000F00100059023480838016841F0080132
:104AB0000160016801F008010591016841F01001F1
:104AC0000160016801F010010591016841F02001C9
:104AD0000160016801F020010591016841F0400189
:104AE00001600068694600F0400005904CF23370A8
:104AF00000900220019001200290032003900C20DE
:104B000004900D48FEF798FE4FF6807000906946BD
:104B10000A48FEF791FE4FF4805469460848009415
:104B2000FEF78AFE694607480094FEF785FE06B048
:104B300010BD000038380240000C02400010024056
:104B400000140240001802404FF0E02104280869D8
:104B500003D020F004000861704740F00400FAE739
:104B600010B5401EB0F1807F01D3012010BD4FF081
:104B7000E02460610F21601709F0CEF90020A061E8
:104B800007202061002010BD704710F8391F4078C1
:104B90000843704770B5026804461068D1685369CD
:104BA00010F00F0F50D003F0010501F4907635435B
:104BB0005DD0C20705D0CA0503D5E26B42F0010201
:104BC000E263420705D5DA0703D0E26B42F0020246
:104BD000E263820705D5DA0703D0E26B42F00402F4
:104BE000E263020705D5DA0703D0E26B42F0080260
:104BF000E263E26B002A33D0800604D5880602D532
:104C0000204608F0EDFD20684069E16BC0F380109C
:104C1000090700D428B3204608F0D4FD2068416974
:104C200049061AD5416921F040014161606BA0B18C
:104C30001B490165606BFEF7DBFD002810D0606B3F
:104C4000016DBDE870400847830610D58B060ED570
:104C50002046BDE8704008F0C3BD2046FFF794FF32
:104C600070BD2046FFF790FF0020E06370BD030693
:104C700006D50B0604D52046BDE8704008F052BFAB
:104C80004006F3D54806F1D5D168204621F0400111
:104C9000D160202184F8391000F0CAF870BD0000FE
:104CA000B5D7000870B5040004D094F83900002589
:104CB00010B106E0012070BD84F83850204600F0A5
:104CC00023F8242084F839002068C16821F40051B9
:104CD000C160204608F0D0FD2068016921F49041B0
:104CE00001612068416921F02A0141612068C168A1
:104CF00041F40051C160E563202084F8390084F854
:104D00003A00002070BD000010B500681A4986B056
:104D100088422FD11948016841F001010160006803
:104D200000F00100059015481430016841F01001B1
:104D300001600068012100F0100005904FF4007040
:104D400000900220CDE90101039007200C4C049053
:104D500069462046FEF770FD211500916946204600
:104D6000FEF76AFD2520FEF79CFE03221146252052
:104D7000FEF7A4FE06B010BD00100140303802401E
:104D80000000024090F83A30202B22D1F9B1F2B164
:104D900090F83830012B1CD081628285C2850021B9
:104DA000C163222280F83A2080F838100168CA686E
:104DB00042F48072CA6001684A6942F001024A61A5
:104DC0000068C16841F02001C160002070470120E7
:104DD000704702207047000030B5006811498842D2
:104DE0000CD1114A5088010408D4114644040978B2
:104DF0004FF0000306D50A2901D0538030BD40F49E
:104E000000400DE00D2909D0C0F30D04074D401CF2
:104E100080B229555080C728EFD830BD40F480407B
:104E2000508030BD0010014014000020900100208F
:104E30007047FEE770B5144886B00025016841F060
:104E400001010160016801F001010591016841F073
:104E5000100101600068032400F01000059002209A
:104E60000126CDE90204CDE9006569460748FEF751
:104E7000E3FC1C2003948DE8610069460448FEF7BA
:104E8000DBFC06B070BD000030380240000002407C
:104E9000001002402DE9F0431A4E8146002430886C
:104EA00075884543B088A0F5D041043903D0A0F5FA
:104EB0001441813902D1B07901280AD00021084675
:104EC00003F0CEF903F040FC1FFA89F04FF0D8410F
:104ED00013E00020B0712A2777814FF02B08A6F845
:104EE0000C80014603F0BCF90120B071A6F80A80DD
:104EF000B781E7E7A1F88000641CAC42FAD3BDE8B3
:104F0000F0830000E80200202DE9F04F6D492A23CC
:104F10002B24F027898847F2897945F2105A4FF4FB
:104F2000305B4FF4285E4FF4487549F2413C4FF432
:104F3000A0767A0080B363484FF00108614580F89D
:104F400006800680478022D0A1F5A647103F1ED0DC
:104F500049451CD0A1F51447863F18D0A1F5144748
:104F6000883F14D0A1F5EE47963F10D0A1F5D04769
:104F7000043F72D0A1F51447813F6ED0514570D1E6
:104F8000A0F808B0A0F80AE02302838190E02C2565
:104F90000581438184816EE0FFE74A484FF00008B5
:104FA000614580F806800780468023D0A1F5D04770
:104FB000043F1FD0A1F5A647103F1BD0A1F5144711
:104FC000813F17D0494515D0A1F51447863F11D030
:104FD000A1F51447883F0DD0A1F5EE47963F09D0C3
:104FE000514526D1A0F808B0A0F80AE04FF42C51A2
:104FF00081812DE02C2505814381A1F5D043848159
:10500000043B13D0A1F5A643103B0FD0A1F51443E8
:10501000813B0BD0A1F51443863B07D0A1F5144387
:10502000883B03D0A1F5EE43963B46D106804280F3
:1050300043E0A1F5C856633E06D02221018120211C
:1050400041812121818138E02C21018144818381AA
:105050000280458031E000E003E02C250581448199
:1050600008E0A1F5C857633F1ED022230381212306
:10507000438120238381A1F5D043043B1BD0A1F5BC
:10508000A643103B17D0A1F51443813B13D0A1F5E3
:105090001443863B0FD0A1F51443883B0BD0A1F5F8
:1050A000EE43963B07D008E02C270781438184819B
:1050B00005804280DFE702804680BDE8F04F002097
:1050C00002F0A8BFE80200202DE9F047624D9246A9
:1050D0000C4602464FEA1129A8882946A0F5134636
:1050E0004B894FEA1228413E2BD0A0F5A64110393A
:1050F00027D0A0F5EE41893923D0A0F5EE419639AD
:105100001FD0A0F5AA41103920D02E46A0F5C857CF
:10511000B1793688B61A761E633F32D0A0F5D047F3
:10512000043F4AD0A0F51447813F46D0A0F514476C
:10513000863F55D0A0F51447883F51D0012979D03A
:1051400079E0184603F0F4FA40463DE0184603F0D3
:10515000EFFA404603F0E0FA6889401C80B203F0A1
:10516000E7FAD0B203F0D8FAA88903F0E1FA48468A
:1051700003F0D2FAA889401C80B203F0D9FAE0B259
:1051800054E001B9B2B2184603F0D2FA160A30461A
:1051900003F0C2FAD0B203F0BFFA304603F0BCFA13
:1051A000D0B203F0B9FAA88903F0C2FA484603F076
:1051B000B3FAE0B203F0B0FA0EE0012900D1B2B2C6
:1051C000184603F0B5FA100A03F0A6FAD0B203F0BD
:1051D000A3FAA88903F0ACFA484603F09DFACEE79B
:1051E000184603F0A5FA404603F096FAD0B203F051
:1051F00093FA2888401EC0F30F2003F08DFA287818
:10520000401EC0B203F088FAA88903F091FA48461C
:1052100003F082FAE0B203F07FFA6888401EC0F320
:105220000F2003F079FAA878401EC0B203F074FA98
:1052300009E0FFE7B2B21146184603F08FFAA889D9
:10524000214603F08BFA4FF0D840298920F87E1FC1
:10525000A0F802A0BDE8F087E80200202DE9F8439D
:10526000244D14468046AA88DDF820C0A2F5D0401F
:105270001F46043803D0A2F51440813802D1A87922
:10528000012809D0A4EB0800401C86B20C461FFA86
:105290008CF54FF0D8492AE02B880846191B0024CA
:1052A000AC712A24A3EB08036C812B26491E5B1EDC
:1052B000AE8189B23A469BB2CDF800C0FFF7CEFF6F
:1052C0000120A8716E81AC81BDE8F883214640467B
:1052D00002F0C6FF03F038FA0020494603E0A1F8C7
:1052E0008050401C80B2B042F9D3641CA4B2BC42CE
:1052F000ECD9E9E7E80200202DE9F04FFF4895B02E
:105300000025016841F00201016000680EA900F06B
:10531000020013904FF400400E9001200F90109067
:1053200003201190F648FEF787FAF648F6494FF049
:105330002044C0E900410621C0E902151021C0E95E
:10534000045185610902C561C0E909518900C0E9BC
:105350000B5189014563C0E90E510F20CDE90705C6
:105360003C2009900920CDE9000511200D950290FF
:1053700003956A4607A90695E248FFF75DFB3220D0
:1053800009F0CAF90121002003F0E8F9322009F000
:10539000C3F9002002F00CFEDA4A47F28975503258
:1053A00049F28649908049F2884A47F2967B49F251
:1053B000413845F2103641F66317FF2806D3A0F5B1
:1053C0007F41FF3902D0B0F5134F7CD1D32003F0D9
:1053D000AFF902F0E3FD908002F0E0FD908002F072
:1053E000DDFD4FF6FF7101EA0020908002F0D6FD4E
:1053F000918808439080404565D0484563D050452A
:1054000061D058455FD0042003F092F902F0C6FD48
:10541000908002F0C3FD908002F0C0FD4FF6FF7156
:1054200001EA0020908002F0B9FD91880843A0F5C0
:105430000541908052397DD0A84270D0BF2003F042
:1054400077F902F0ABFD908002F0A8FD908002F0A9
:10545000A5FD908002F0A2FD4FF6FF7101EA002049
:10546000908002F09BFD91880843A0F5D041908088
:10547000043954D0A0F51441813950D0D42003F020
:1054800057F902F08BFD908002F088FD908002F0C9
:1054900085FD4FF6FF7101EA0020908002F07EFD4D
:1054A000918808439080B04239D04FF45A4003F0BD
:1054B0003FF902F073FD90804FF45B4003F038F940
:1054C00002F06CFD00E02AE04FF6FF7101EA0020D7
:1054D00090804FF45C4003F02BF902F05FFD91885F
:1054E00008439080B0F5004F49D0A0F5AA4110398B
:1054F00015D0A12003F01CF902F050FD908002F0BD
:105500004DFD4FF6FF7101EA0020908002F046FD4C
:1055100091880843A0F5AE41908061392DD080B2CA
:10552000404511D0B0420FD0A0F5AA4110390BD0A0
:10553000B84200E01FE007D0A84205D0484503D09C
:10554000504501D058451ED1D4F81C0120F00F0061
:10555000C4F81C01D4F81C0120F47060C4F81C01CC
:10556000D4F81C0140F00300C4F81C01D4F81C015D
:1055700040F4007025E09580E6E79780E4E745F287
:1055800010509080E0E7A0F5D041043903D0A0F599
:105590004541053917D1D4F81C0120F00F00C4F89B
:1055A0001C01D4F81C0120F47060C4F81C01D4F86C
:1055B0001C0140F00A00C4F81C01D4F81C0140F49E
:1055C0004060C4F81C014F48503081884FA0FAF762
:1055D000F3FE4C485030808840457CD1CF2003F00A
:1055E000A7F8002003F098F8C12003F095F83020C8
:1055F00003F092F8ED2003F09BF8642003F08CF8A0
:10560000032003F089F8122003F086F8812003F0CC
:1056100083F8E82003F08CF8852003F07DF8102053
:1056200003F07AF87A2003F077F8CB2003F080F8C3
:10563000392003F071F82C2003F06EF8002003F0FD
:105640006BF8342003F068F8022003F065F8F720C7
:1056500003F06EF8202003F05FF8EA2003F068F80A
:10566000002003F059F8002003F056F8C02003F0A2
:105670005FF81B2003F050F8C12003F059F8012017
:1056800003F04AF8C52003F053F8302003F044F843
:10569000302003F041F8C72003F04AF8B72003F0A8
:1056A0003BF8362003F044F8482003F035F83A2060
:1056B00003F03EF8552003F02FF8B12003F038F83E
:1056C000002003F029F81A2003F026F8B62003F092
:1056D0002FF80A2000E09EE003F01EF8A22003F05D
:1056E0001BF8F22003F024F8002003F015F8262020
:1056F00003F01EF8012003F00FF80FE030380240ED
:105700000004024098020020040100A0204C434401
:105710002049443A25780D0A00000000E02003F0FB
:1057200007F80F2002F0F8FF2A2002F0F5FF2820EA
:1057300002F0F2FF082002F0EFFF0E2002F0ECFF73
:10574000082002F0E9FF542002F0E6FFA92002F051
:10575000E3FF432002F0E0FF0A2002F0DDFF0F200C
:1057600002F0DAFF002002F0D7FF002002F0D4FFA1
:10577000002002F0D1FF002002F0CEFFE12002F075
:10578000D7FF002002F0C8FF152002F0C5FF172048
:1057900002F0C2FF072002F0BFFF112002F0BCFFA1
:1057A000062002F0B9FF2B2002F0B6FF562002F0CF
:1057B000B3FF3C2002F0B0FF052002F0ADFF102047
:1057C00002F0AAFF0F2002F0A7FF3F2002F0A4FF83
:1057D0003F2002F0A1FF0F2002F09EFF2B2002F0DD
:1057E000A7FF002002F098FF002002F095FF0120A3
:1057F00002F092FF3F2002F08FFF2A2002F098FF74
:10580000002002F089FF002002F086FF002002F055
:1058100083FFEF20DFE2A8427ED1112002F088FF53
:10582000782008F079FF362002F082FF002002F095
:1058300073FF3A2002F07CFF052002F06DFFB220DA
:1058400002F076FF0C2002F067FF0C2002F064FFEC
:10585000002002F061FF332002F05EFF332002F0EF
:105860005BFFB72002F064FF352002F055FFBB203C
:1058700002F05EFF322002F04FFFC02002F058FF1E
:105880000C2002F049FFC22002F052FF012002F07A
:1058900043FFC32002F04CFF102002F03DFFC42064
:1058A00002F046FF202002F037FFC62002F040FF42
:1058B0000F2002F031FFD02002F03AFFA42002F0C6
:1058C0002BFFA12002F028FFE02002F031FFD020C2
:1058D00002F022FF002002F01FFF022002F01CFF56
:1058E000072002F019FF0A2002F016FF282002F01C
:1058F00013FF322002F010FF442002F00DFF42207F
:1059000002F00AFF062002F007FF0E2002F004FF5B
:10591000122002F001FF00E053E0142002F0FCFE30
:10592000172002F0F9FEE12002F002FFD02002F081
:10593000F3FE002002F0F0FE022002F0EDFE072050
:1059400002F0EAFE0A2002F0E7FE282002F0E4FE60
:10595000312002F0E1FE542002F0DEFE472002F08A
:10596000DBFE0E2002F0D8FE1C2002F0D5FE172030
:1059700002F0D2FE1B2002F0CFFE1E2002F0CCFE71
:105980002A2002F0D5FE002002F0C6FE002002F020
:10599000C3FE002002F0C0FEEF2002F0BDFE2B206F
:1059A00002F0C6FE002002F0B7FE002002F0B4FEB6
:1059B000012002F0B1FE3F2002F0AEFE292002F0ED
:1059C000E9BAA0F5144181397ED048457DD1F22055
:1059D00002F0AEFE182002F09FFEA32002F09CFE13
:1059E000122002F099FE022002F096FEB22002F090
:1059F00093FE122002F090FEFF2002F08DFE102098
:105A000002F08AFE002002F087FEF82002F090FEED
:105A1000212002F081FE042002F07EFEF92002F037
:105A200087FE002002F078FE082002F075FE362086
:105A300002F07EFE082002F06FFE3A2002F078FEAF
:105A4000052002F069FEB42002F072FE012002F08F
:105A500063FEB62002F06CFE022002F05DFE222002
:105A600002F05AFEC12002F063FE412002F054FE13
:105A7000C52002F05DFE002002F04EFE072002F07D
:105A80004BFEE02002F054FE0F2002F045FE1F20E6
:105A900002F042FE1C2002F03FFE0C2002F03CFE11
:105AA0000F2002F039FE082002F036FE482002F0F6
:105AB00033FE982002F030FE372002F02DFE0A203F
:105AC00002F02AFE132001E03DE0E6E002F024FEB1
:105AD000042002F021FE112002F01EFE0D2002F033
